:100000000C9431000C944E000C944E000C944E0055
:100010000C944E000C94EA020C944E000C944E008A
:100020000C944E000C94C1020C944E000C94980257
:100030000C9451010C943C030C9465030C94130331
:100040000C944E000C944E000C944E000C944E00F8
:100050000C944E0049024D025102510255025502C4
:10006000590211241FBECFE5D8E0DEBFCDBF10E09E
:10007000A0E6B0E0E2E9FFE002C005900D92A437EF
:10008000B107D9F720E0A4E7B0E001C01D92AB3C76
:10009000B207E1F70E945D000C94C7070C940000C2
:1000A000D69ADE9A089562E080E00E9404010895E5
:1000B00061E080E00E9404010895CF93DF93CDB703
:1000C000DEB766970FB6F894DEBF0FBECDBF0E94B5
:1000D00020061A8211E01B8388E590E09D838C83C3
:1000E0001982CE0101960E944F061F82188783E570
:1000F00090E09A8789871E82CE0106960E944F065D
:10010000D69A0E94B8048FB780688FBF8CE0E6E66D
:10011000F0E0DE011B9601900D928A95E1F740E533
:1001200050E06CE070E0CE010B960E9427050E9423
:1001300022018AB38FEF8ABBDF9A0E94FF060E94DA
:100140005705DF9880E090E00E942701F5CFFC0181
:10015000892B09F44FC080818130C1F028F08230B2
:1001600039F18330B1F148C03281332341F03F3F50
:1001700009F044C02AB39181922B9ABB08952AB307
:100180009181909592239ABB832F089532813323D6
:1001900041F03F3FC1F597B38181892B87BB80E058
:1001A000089527B391819095922397BB832F08954B
:1001B0008281882341F08F3F19F594B38181892B87
:1001C00084BB80E0089524B391819095922394BBE1
:1001D00008958281882341F08F3FA1F49AB38181F1
:1001E000892B8ABB80E0089524B391819095922356
:1001F00094BB089581E0089581E0089581E0089519
:1002000081E0089581E00895813059F028F082302E
:1002100069F0833081F014C08BB368276BBB80E03A
:10022000089588B3682768BB80E0089585B3682780
:1002300065BB80E0089582B3682762BB80E00895C3
:1002400081E0089585B7806885BF80E00895823099
:10025000A1F028F4882351F0813059F020C0863075
:10026000A1F08730B1F08330D1F40BC085B785BFE2
:1002700013C085B7816085BF0FC085B7826085BF19
:100280000BC085B7836085BF07C085B7866085BF13
:1002900003C085B7876085BF889580E0089581E0B9
:1002A00008951F920F920FB60F9211242F933F9330
:1002B0004F935F936F937F938F939F93AF93BF936E
:1002C000EF93FF93E0917400F09175000995FF9111
:1002D000EF91BF91AF919F918F917F916F915F91BE
:1002E0004F913F912F910F900FBE0F901F90189537
:1002F000DC018C91813009F451C020F0823009F486
:10030000ADC0E7C014962D913C91159730937B00BA
:1003100020937A0011969C911197913041F118F039
:10032000923049F1D8C013969C911397943099F06C
:1003300028F4913041F0923051F0CFC0963079F0EE
:10034000973089F0CAC091E090937F0017C092E087
:1003500090937F0013C093E090937F000FC094E0D0
:1003600090937F000BC095E090937F0007C097E0CB
:1003700090937F0003C096E090937F0012969C912B
:10038000992319F0913031F0AAC089B78E7F89BFC7
:10039000892F089599B7916099BF089514962D916A
:1003A0003C911597309379002093780011969C9199
:1003B00011979130B9F118F09230D9F10895139650
:1003C0009C9113979430C9F028F4913041F0923009
:1003D00069F008959630C1F09730E9F0089521E072
:1003E00030E030937E0020937D0029C022E030E091
:1003F00030937E0020937D0022C023E030E03093D4
:100400007E0020937D001BC024E030E030937E000E
:1004100020937D0014C025E030E030937E002093CF
:100420007D000DC027E030E030937E0020937D00FA
:1004300006C026E030E030937E0020937D001296C7
:100440009C91992319F0913021F0089519BE892FBC
:10045000089589B7846089BF80E0089514968D91CE
:100460009C911597909377008093760011968C91CC
:100470001197811121C01396EC9113974E2F50E0E4
:10048000FA013197E730F10560F5E65DFF4F0C9416
:10049000A70781E080937C000FC082E080937C00FE
:1004A0000BC084E080937C0007C086E080937C00D2
:1004B00003C087E080937C0012968C91882319F00A
:1004C000813019F010C019BE089580E489BF80E022
:1004D000089580E0089581E0089581E0089581E025
:1004E000089581E0089581E00895813059F018F071
:1004F0008230A9F01BC0619562BF80917F0083BFED
:1005000080E008957195619571097DBD6CBD809104
:100510007D0090917E009FBD8EBD80E00895619525
:1005200064BD80917C0085BD80E0089581E00895E0
:100530001F920F920FB60F9211242F933F934F9358
:100540005F936F937F938F939F93AF93BF93EF933B
:10055000FF93E0917A00F0917B00309709F00995C4
:10056000FF91EF91BF91AF919F918F917F916F918B
:100570005F914F913F912F910F900FBE0F901F9061
:1005800018951F920F920FB60F9211242F933F933D
:100590004F935F936F937F938F939F93AF93BF938B
:1005A000EF93FF93E0917800F0917900309709F094
:1005B0000995FF91EF91BF91AF919F918F917F919D
:1005C0006F915F914F913F912F910F900FBE0F90C0
:1005D0001F9018951F920F920FB60F9211242F9310
:1005E0003F934F935F936F937F938F939F93AF93BB
:1005F000BF93EF93FF93E0917600F09177003097EF
:1006000009F00995FF91EF91BF91AF919F918F9163
:100610007F916F915F914F913F912F910F900FBEFE
:100620000F901F9018951F920F920FB60F921124E2
:100630002F933F934F935F936F937F938F939F93EA
:10064000AF93BF93EF93FF93E0918000F09181000F
:10065000309709F00995FF91EF91BF91AF919F916C
:100660008F917F916F915F914F913F912F910F905B
:100670000FBE0F901F9018951F920F920FB60F92FA
:1006800011242F933F934F935F936F937F938F9397
:100690009F93AF93BF93EF93FF93E0918200F0910C
:1006A0008300309709F00995FF91EF91BF91AF91C9
:1006B0009F918F917F916F915F914F913F912F917A
:1006C0000F900FBE0F901F9018951F920F920FB6AC
:1006D0000F9211242F933F934F935F936F937F93C8
:1006E0008F939F93AF93BF93EF93FF93E091840019
:1006F000F0918500309709F00995FF91EF91BF9136
:10070000AF919F918F917F916F915F914F913F91A9
:100710002F910F900FBE0F901F9018958F929F9260
:10072000AF92BF92CF92DF92EF92FF920F931F93FF
:10073000CF93DF9300D000D000D0CDB7DEB78C01CF
:1007400019821A821B821C821D821E82DC01119674
:100750008C91813099F018F0823009F1D0C0F80105
:100760008081882341F0569A8285938590938100F9
:100770008093800001C05698539A2EC0D8018C9166
:10078000882351F0579A1C968D919C911D979093B8
:1007900083008093820001C05798549A1DC0F801CD
:1007A0008081882399F08AB1806C8AB9E0E8F0E012
:1007B000D8011C968D919C911D97938382831A96E4
:1007C0008D919C911B979183808303C08AB18F7315
:1007D0008AB98AB188618AB9F8018281813011F4BD
:1007E000599A03C081118DC05998D80112962C9145
:1007F00030E02F5F3F4F032E000C440B550B812C34
:10080000912C5401689484F8C501B4010E948507B5
:10081000F80166817781808591850E9475079B012B
:10082000AC010F2EC12CF4E2DF2EF4EFEF2EF12CF1
:10083000F02DC701B6010E948507DA01C9010197B1
:10084000A109B109892F9A2FAB2FBB2780BDD801F1
:1008500012962C9130E02F5F3F4F032E000C440B7B
:10086000550BC501B4010E948507F80166817781A7
:10087000808591850E9475079B01AC01C701B60177
:100880000E948507215029B9D80115968C9115979A
:100890008670282F220F14969C91B0E19B9FC00177
:1008A00011248073822B80BDF8018581873011F47B
:1008B000529A01C05298D8011E968D919C911F9713
:1008C000892B49F0559A1E968D919C911F97909374
:1008D00085008093840082E08A8313E019838FEF80
:1008E0008B83CE0101960E94A70081E08D831C833B
:1008F0001E82CE0104960E94A70080E003C081E022
:1009000001C081E026960FB6F894DEBF0FBECDBFC2
:10091000DF91CF911F910F91FF90EF90DF90CF90DB
:10092000BF90AF909F908F9008952091820030915A
:100930008300232B41F42BB1207830E021583F4F26
:100940002F3F3105C0F32CB1FC01208380E00895D6
:100950008091AD00823019F481E08093AD0008955C
:100960008091B200843019F483E08093B20008953E
:1009700080916000813009F064C080916200811133
:100980003AC080916100882319F08130D9F033C0DA
:10099000E5E9F0E080E895E2A0E0B0E086839783A7
:1009A000A087B18783E085831182128281E08083F2
:1009B0001482138288EA94E093878287CF010E9491
:1009C0008E0319C0E5E9F0E080E895E2A0E0B0E030
:1009D00086839783A087B18783E0858381E08183C5
:1009E000128280831482138280EB94E0958784873F
:1009F000CF010E948E03ECEAF0E011821082A1EB9D
:100A0000B0E01C92138213961C921397148281E01B
:100A1000828312968C93129711961C92ADE8B0E0E7
:100A200011961C921E92E6EAF0E011821082139653
:100A30001C921E921297138212821092600080E024
:100A40000895811102C08DEF089580E008959C0102
:100A50009091B300913009F521153105D1F0411580
:100A60005105F9F0E6EAF0E0338322837183608375
:100A700081E68093A500A1EBB0E083E011968C9312
:100A8000119712961C92109287005583448380E040
:100A90000895452B41F48CEF0895911106C08DEF18
:100AA000089580E0089580E0089580E008958091A1
:100AB0006000811199C08091B30081119CC0809128
:100AC00087008230D9F128F4882351F08130F9F081
:100AD00094C0833009F443C0843009F46EC08DC0E3
:100AE0008091B200833009F08AC084EB90E00E94CC
:100AF00095049091B4008091A500981382C084E081
:100B00008093B20081E08093870080E00895809117
:100B1000B200833009F077C083E990E00E94950429
:100B200080919300109293008093940084E08093CE
:100B3000B20082E08093870080E008958091B20047
:100B4000833009F062C083E990E00E94950484E05C
:100B50008093B20083E08093870080E008958091C5
:100B6000B50090E020919300309194008217930794
:100B7000F8F48091B200833009F049C088EA90E02F
:100B80000E949504209186008091A8009091A90070
:100B9000820F911D80938600E1EBF0E084818F5FEE
:100BA000848384E0818383E08093870080E00895DC
:100BB00084E08093870080E008958091B2008330C4
:100BC00041F581EB90E00E9495049091B1008091F5
:100BD0008600981305C0E091AA00F091AB0009953A
:100BE0001092870080E0089581E09091B300911108
:100BF00080E08195089580E0089580E0089580E088
:100C000008958BEF089580E0089580E0089580E0D6
:100C1000089580E0089580918A00811110C081E0DC
:100C200080938A00E3E6F0E06181728162957295BB
:100C3000707F7627607F762780810E9475020895F5
:100C40001F93CF93DF9300D000D000D0CDB7DEB795
:100C500080918800811114C08BE096E09E838D8383
:100C60008091630089831A8211E01B8387E08C8363
:100C7000CE0101960E9478011093880080E005C0A3
:100C8000813011F48DEF01C080E026960FB6F89404
:100C9000DEBF0FBECDBFDF91CF911F910895CF93DF
:100CA000DF93FC0190918800913009F048C0EF017A
:100CB00090918B00911125C080916300833008F0E2
:100CC00048C0811109C02091640030916500213134
:100CD000310508F040C009C0813039F4209164002A
:100CE0003091650021363041C0F56091640070910B
:100CF000650062957295707F7627607F76270E94E7
:100D0000750290918B009430F0F480E02B813C814F
:100D1000232BD9F0292F30E0D901AA0FBB1FAA0F2E
:100D2000BB1FA20FB31FA954BF4F25E0FE010190C6
:100D30000D922A95E1F79F5F90938B0010C091115F
:100D400006C08EEF0CC080E00AC08CEF08C080E0C7
:100D500006C08FEFDBCF8AEFD9CF8AEFD7CFDF91F5
:100D6000CF910895BC0180918800813009F041C085
:100D70006115710509F43FC01092890040918B0004
:100D80004423D9F190E0292F30E0F901EE0FFF1F45
:100D9000EE0FFF1FE20FF31FE954FF4F0380F481B2
:100DA000E02D6E177F07E1F4D901AA0FBB1FAA0F30
:100DB000BB1FA20FB31FA954BF4F242F30E0F9016E
:100DC000EE0FFF1FEE0FFF1FE20FF31FE954FF4F5F
:100DD00085E001900D928A95E1F7415040938B0098
:100DE0009F5F9093890040918B00941760F280E0A0
:100DF000089580E008958CEF089580E00895CF93E2
:100E0000DF9380918800813009F068C080918A006A
:100E1000813009F065C01092890080E0C0E0DCEF0D
:100E200090E0FC01EE0FFF1FEE0FFF1FE80FF91F10
:100E3000E954FF4F21812F5F21833281231341C069
:100E4000FC01EE0FFF1FEE0FFF1F8E0F9F1FFC0117
:100E5000E954FF4F0380F481E02D309711F009959C
:100E600001C0CD2F8091890090E0FC01EE0FFF1FA3
:100E7000EE0FFF1FE80FF91FE954FF4F20812111EA
:100E80000CC0FC01EE0FFF1FEE0FFF1F8E0F9F1F08
:100E9000FC01E954FF4F118214C0213091F4FC0190
:100EA000EE0FFF1FEE0FFF1F8E0F9F1FFC01E95477
:100EB000FF4F83819481009719F00E94B20601C010
:100EC000CD2F809189008F5F8093890090918B0056
:100ED000981708F0A5CF10928A0003C0CEEF01C08A
:100EE000C0E08C2FDF91CF910895DB018F939F930A
:100EF0000E94AD07BF91AF91A29F800D911DA39F4E
:100F0000900DB29F900D11240895A1E21A2EAA1BF4
:100F1000BB1BFD010DC0AA1FBB1FEE1FFF1FA217A9
:100F2000B307E407F50720F0A21BB30BE40BF50BA6
:100F3000661F771F881F991F1A9469F7609570952F
:100F4000809590959B01AC01BD01CF010895EE0FF6
:100F5000FF1F0590F491E02D09940E94B807A59F0A
:100F6000900DB49F900DA49F800D911D11240895A4
:100F7000A29FB001B39FC001A39F700D811D1124DA
:100F8000911DB29F700D811D1124911D0895F8943B
:020F9000FFCF91
:100F92000101000201004D6F68616D6D6164417471
:040FA2006566000080
:00000001FF
